{
  "_format": "hh-sol-artifact-1",
  "contractName": "WorldOfMen",
  "sourceName": "contracts/WOM.sol",
  "abi": [
    {
      "inputs": [
        {
          "internalType": "uint256",
          "name": "maxBatchSize_",
          "type": "uint256"
        },
        {
          "internalType": "address[]",
          "name": "_payees",
          "type": "address[]"
        },
        {
          "internalType": "uint256[]",
          "name": "_shares",
          "type": "uint256[]"
        }
      ],
      "stateMutability": "payable",
      "type": "constructor"
    },
    {
      "anonymous": false,
      "inputs": [
        {
          "indexed": true,
          "internalType": "address",
          "name": "owner",
          "type": "address"
        },
        {
          "indexed": true,
          "internalType": "address",
          "name": "approved",
          "type": "address"
        },
        {
          "indexed": true,
          "internalType": "uint256",
          "name": "tokenId",
          "type": "uint256"
        }
      ],
      "name": "Approval",
      "type": "event"
    },
    {
      "anonymous": false,
      "inputs": [
        {
          "indexed": true,
          "internalType": "address",
          "name": "owner",
          "type": "address"
        },
        {
          "indexed": true,
          "internalType": "address",
          "name": "operator",
          "type": "address"
        },
        {
          "indexed": false,
          "internalType": "bool",
          "name": "approved",
          "type": "bool"
        }
      ],
      "name": "ApprovalForAll",
      "type": "event"
    },
    {
      "anonymous": false,
      "inputs": [
        {
          "indexed": true,
          "internalType": "contract IERC20",
          "name": "token",
          "type": "address"
        },
        {
          "indexed": false,
          "internalType": "address",
          "name": "to",
          "type": "address"
        },
        {
          "indexed": false,
          "internalType": "uint256",
          "name": "amount",
          "type": "uint256"
        }
      ],
      "name": "ERC20PaymentReleased",
      "type": "event"
    },
    {
      "anonymous": false,
      "inputs": [
        {
          "indexed": true,
          "internalType": "address",
          "name": "previousOwner",
          "type": "address"
        },
        {
          "indexed": true,
          "internalType": "address",
          "name": "newOwner",
          "type": "address"
        }
      ],
      "name": "OwnershipTransferred",
      "type": "event"
    },
    {
      "anonymous": false,
      "inputs": [
        {
          "indexed": false,
          "internalType": "address",
          "name": "account",
          "type": "address"
        },
        {
          "indexed": false,
          "internalType": "uint256",
          "name": "shares",
          "type": "uint256"
        }
      ],
      "name": "PayeeAdded",
      "type": "event"
    },
    {
      "anonymous": false,
      "inputs": [
        {
          "indexed": false,
          "internalType": "address",
          "name": "from",
          "type": "address"
        },
        {
          "indexed": false,
          "internalType": "uint256",
          "name": "amount",
          "type": "uint256"
        }
      ],
      "name": "PaymentReceived",
      "type": "event"
    },
    {
      "anonymous": false,
      "inputs": [
        {
          "indexed": false,
          "internalType": "address",
          "name": "to",
          "type": "address"
        },
        {
          "indexed": false,
          "internalType": "uint256",
          "name": "amount",
          "type": "uint256"
        }
      ],
      "name": "PaymentReleased",
      "type": "event"
    },
    {
      "anonymous": false,
      "inputs": [
        {
          "indexed": true,
          "internalType": "address",
          "name": "from",
          "type": "address"
        },
        {
          "indexed": true,
          "internalType": "address",
          "name": "to",
          "type": "address"
        },
        {
          "indexed": true,
          "internalType": "uint256",
          "name": "tokenId",
          "type": "uint256"
        }
      ],
      "name": "Transfer",
      "type": "event"
    },
    {
      "inputs": [],
      "name": "MAX_PER_ADDRESS",
      "outputs": [
        {
          "internalType": "uint256",
          "name": "",
          "type": "uint256"
        }
      ],
      "stateMutability": "view",
      "type": "function"
    },
    {
      "inputs": [],
      "name": "MAX_SUPPLY",
      "outputs": [
        {
          "internalType": "uint256",
          "name": "",
          "type": "uint256"
        }
      ],
      "stateMutability": "view",
      "type": "function"
    },
    {
      "inputs": [],
      "name": "PRICE",
      "outputs": [
        {
          "internalType": "uint256",
          "name": "",
          "type": "uint256"
        }
      ],
      "stateMutability": "view",
      "type": "function"
    },
    {
      "inputs": [],
      "name": "_baseTokenURI",
      "outputs": [
        {
          "internalType": "string",
          "name": "",
          "type": "string"
        }
      ],
      "stateMutability": "view",
      "type": "function"
    },
    {
      "inputs": [
        {
          "internalType": "address",
          "name": "to",
          "type": "address"
        },
        {
          "internalType": "uint256",
          "name": "tokenId",
          "type": "uint256"
        }
      ],
      "name": "approve",
      "outputs": [],
      "stateMutability": "nonpayable",
      "type": "function"
    },
    {
      "inputs": [
        {
          "internalType": "address",
          "name": "owner",
          "type": "address"
        }
      ],
      "name": "balanceOf",
      "outputs": [
        {
          "internalType": "uint256",
          "name": "",
          "type": "uint256"
        }
      ],
      "stateMutability": "view",
      "type": "function"
    },
    {
      "inputs": [
        {
          "internalType": "address",
          "name": "",
          "type": "address"
        }
      ],
      "name": "claimed",
      "outputs": [
        {
          "internalType": "uint256",
          "name": "",
          "type": "uint256"
        }
      ],
      "stateMutability": "view",
      "type": "function"
    },
    {
      "inputs": [
        {
          "internalType": "uint256",
          "name": "tokenId",
          "type": "uint256"
        }
      ],
      "name": "getApproved",
      "outputs": [
        {
          "internalType": "address",
          "name": "",
          "type": "address"
        }
      ],
      "stateMutability": "view",
      "type": "function"
    },
    {
      "inputs": [
        {
          "internalType": "uint256",
          "name": "tokenId",
          "type": "uint256"
        }
      ],
      "name": "getOwnershipData",
      "outputs": [
        {
          "components": [
            {
              "internalType": "address",
              "name": "addr",
              "type": "address"
            },
            {
              "internalType": "uint64",
              "name": "startTimestamp",
              "type": "uint64"
            }
          ],
          "internalType": "struct ERC721A.TokenOwnership",
          "name": "",
          "type": "tuple"
        }
      ],
      "stateMutability": "view",
      "type": "function"
    },
    {
      "inputs": [],
      "name": "hasPublicSaleStarted",
      "outputs": [
        {
          "internalType": "bool",
          "name": "",
          "type": "bool"
        }
      ],
      "stateMutability": "view",
      "type": "function"
    },
    {
      "inputs": [],
      "name": "hasWhitelistSaleStarted",
      "outputs": [
        {
          "internalType": "bool",
          "name": "",
          "type": "bool"
        }
      ],
      "stateMutability": "view",
      "type": "function"
    },
    {
      "inputs": [
        {
          "internalType": "address",
          "name": "owner",
          "type": "address"
        },
        {
          "internalType": "address",
          "name": "operator",
          "type": "address"
        }
      ],
      "name": "isApprovedForAll",
      "outputs": [
        {
          "internalType": "bool",
          "name": "",
          "type": "bool"
        }
      ],
      "stateMutability": "view",
      "type": "function"
    },
    {
      "inputs": [],
      "name": "isPublicSaleActive",
      "outputs": [
        {
          "internalType": "bool",
          "name": "",
          "type": "bool"
        }
      ],
      "stateMutability": "view",
      "type": "function"
    },
    {
      "inputs": [],
      "name": "isWhitelistSaleActive",
      "outputs": [
        {
          "internalType": "bool",
          "name": "",
          "type": "bool"
        }
      ],
      "stateMutability": "view",
      "type": "function"
    },
    {
      "inputs": [
        {
          "internalType": "uint256",
          "name": "count",
          "type": "uint256"
        }
      ],
      "name": "mintPublicSale",
      "outputs": [],
      "stateMutability": "payable",
      "type": "function"
    },
    {
      "inputs": [
        {
          "internalType": "bytes32[]",
          "name": "merkleProof",
          "type": "bytes32[]"
        },
        {
          "internalType": "uint256",
          "name": "count",
          "type": "uint256"
        }
      ],
      "name": "mintWhitelist",
      "outputs": [],
      "stateMutability": "payable",
      "type": "function"
    },
    {
      "inputs": [],
      "name": "name",
      "outputs": [
        {
          "internalType": "string",
          "name": "",
          "type": "string"
        }
      ],
      "stateMutability": "view",
      "type": "function"
    },
    {
      "inputs": [],
      "name": "nextOwnerToExplicitlySet",
      "outputs": [
        {
          "internalType": "uint256",
          "name": "",
          "type": "uint256"
        }
      ],
      "stateMutability": "view",
      "type": "function"
    },
    {
      "inputs": [],
      "name": "owner",
      "outputs": [
        {
          "internalType": "address",
          "name": "",
          "type": "address"
        }
      ],
      "stateMutability": "view",
      "type": "function"
    },
    {
      "inputs": [
        {
          "internalType": "uint256",
          "name": "tokenId",
          "type": "uint256"
        }
      ],
      "name": "ownerOf",
      "outputs": [
        {
          "internalType": "address",
          "name": "",
          "type": "address"
        }
      ],
      "stateMutability": "view",
      "type": "function"
    },
    {
      "inputs": [
        {
          "internalType": "uint256",
          "name": "index",
          "type": "uint256"
        }
      ],
      "name": "payee",
      "outputs": [
        {
          "internalType": "address",
          "name": "",
          "type": "address"
        }
      ],
      "stateMutability": "view",
      "type": "function"
    },
    {
      "inputs": [
        {
          "internalType": "address payable",
          "name": "account",
          "type": "address"
        }
      ],
      "name": "release",
      "outputs": [],
      "stateMutability": "nonpayable",
      "type": "function"
    },
    {
      "inputs": [
        {
          "internalType": "contract IERC20",
          "name": "token",
          "type": "address"
        },
        {
          "internalType": "address",
          "name": "account",
          "type": "address"
        }
      ],
      "name": "release",
      "outputs": [],
      "stateMutability": "nonpayable",
      "type": "function"
    },
    {
      "inputs": [
        {
          "internalType": "contract IERC20",
          "name": "token",
          "type": "address"
        },
        {
          "internalType": "address",
          "name": "account",
          "type": "address"
        }
      ],
      "name": "released",
      "outputs": [
        {
          "internalType": "uint256",
          "name": "",
          "type": "uint256"
        }
      ],
      "stateMutability": "view",
      "type": "function"
    },
    {
      "inputs": [
        {
          "internalType": "address",
          "name": "account",
          "type": "address"
        }
      ],
      "name": "released",
      "outputs": [
        {
          "internalType": "uint256",
          "name": "",
          "type": "uint256"
        }
      ],
      "stateMutability": "view",
      "type": "function"
    },
    {
      "inputs": [],
      "name": "renounceOwnership",
      "outputs": [],
      "stateMutability": "nonpayable",
      "type": "function"
    },
    {
      "inputs": [
        {
          "internalType": "address",
          "name": "from",
          "type": "address"
        },
        {
          "internalType": "address",
          "name": "to",
          "type": "address"
        },
        {
          "internalType": "uint256",
          "name": "tokenId",
          "type": "uint256"
        }
      ],
      "name": "safeTransferFrom",
      "outputs": [],
      "stateMutability": "nonpayable",
      "type": "function"
    },
    {
      "inputs": [
        {
          "internalType": "address",
          "name": "from",
          "type": "address"
        },
        {
          "internalType": "address",
          "name": "to",
          "type": "address"
        },
        {
          "internalType": "uint256",
          "name": "tokenId",
          "type": "uint256"
        },
        {
          "internalType": "bytes",
          "name": "_data",
          "type": "bytes"
        }
      ],
      "name": "safeTransferFrom",
      "outputs": [],
      "stateMutability": "nonpayable",
      "type": "function"
    },
    {
      "inputs": [
        {
          "internalType": "address",
          "name": "operator",
          "type": "address"
        },
        {
          "internalType": "bool",
          "name": "approved",
          "type": "bool"
        }
      ],
      "name": "setApprovalForAll",
      "outputs": [],
      "stateMutability": "nonpayable",
      "type": "function"
    },
    {
      "inputs": [
        {
          "internalType": "string",
          "name": "baseURI",
          "type": "string"
        }
      ],
      "name": "setBaseURI",
      "outputs": [],
      "stateMutability": "nonpayable",
      "type": "function"
    },
    {
      "inputs": [
        {
          "internalType": "uint256",
          "name": "quantity",
          "type": "uint256"
        }
      ],
      "name": "setOwnersExplicit",
      "outputs": [],
      "stateMutability": "nonpayable",
      "type": "function"
    },
    {
      "inputs": [
        {
          "internalType": "bool",
          "name": "_isSalePublic",
          "type": "bool"
        }
      ],
      "name": "setPublicSaleActive",
      "outputs": [],
      "stateMutability": "nonpayable",
      "type": "function"
    },
    {
      "inputs": [
        {
          "internalType": "bytes32",
          "name": "merkleRoot",
          "type": "bytes32"
        }
      ],
      "name": "setWhitelistMerkleRoot",
      "outputs": [],
      "stateMutability": "nonpayable",
      "type": "function"
    },
    {
      "inputs": [
        {
          "internalType": "bool",
          "name": "_isSalePublic",
          "type": "bool"
        }
      ],
      "name": "setWhitelistSaleActive",
      "outputs": [],
      "stateMutability": "nonpayable",
      "type": "function"
    },
    {
      "inputs": [
        {
          "internalType": "address",
          "name": "account",
          "type": "address"
        }
      ],
      "name": "shares",
      "outputs": [
        {
          "internalType": "uint256",
          "name": "",
          "type": "uint256"
        }
      ],
      "stateMutability": "view",
      "type": "function"
    },
    {
      "inputs": [
        {
          "internalType": "bytes4",
          "name": "interfaceId",
          "type": "bytes4"
        }
      ],
      "name": "supportsInterface",
      "outputs": [
        {
          "internalType": "bool",
          "name": "",
          "type": "bool"
        }
      ],
      "stateMutability": "view",
      "type": "function"
    },
    {
      "inputs": [],
      "name": "symbol",
      "outputs": [
        {
          "internalType": "string",
          "name": "",
          "type": "string"
        }
      ],
      "stateMutability": "view",
      "type": "function"
    },
    {
      "inputs": [
        {
          "internalType": "uint256",
          "name": "index",
          "type": "uint256"
        }
      ],
      "name": "tokenByIndex",
      "outputs": [
        {
          "internalType": "uint256",
          "name": "",
          "type": "uint256"
        }
      ],
      "stateMutability": "view",
      "type": "function"
    },
    {
      "inputs": [
        {
          "internalType": "address",
          "name": "owner",
          "type": "address"
        },
        {
          "internalType": "uint256",
          "name": "index",
          "type": "uint256"
        }
      ],
      "name": "tokenOfOwnerByIndex",
      "outputs": [
        {
          "internalType": "uint256",
          "name": "",
          "type": "uint256"
        }
      ],
      "stateMutability": "view",
      "type": "function"
    },
    {
      "inputs": [
        {
          "internalType": "uint256",
          "name": "tokenId",
          "type": "uint256"
        }
      ],
      "name": "tokenURI",
      "outputs": [
        {
          "internalType": "string",
          "name": "",
          "type": "string"
        }
      ],
      "stateMutability": "view",
      "type": "function"
    },
    {
      "inputs": [
        {
          "internalType": "contract IERC20",
          "name": "token",
          "type": "address"
        }
      ],
      "name": "totalReleased",
      "outputs": [
        {
          "internalType": "uint256",
          "name": "",
          "type": "uint256"
        }
      ],
      "stateMutability": "view",
      "type": "function"
    },
    {
      "inputs": [],
      "name": "totalReleased",
      "outputs": [
        {
          "internalType": "uint256",
          "name": "",
          "type": "uint256"
        }
      ],
      "stateMutability": "view",
      "type": "function"
    },
    {
      "inputs": [],
      "name": "totalShares",
      "outputs": [
        {
          "internalType": "uint256",
          "name": "",
          "type": "uint256"
        }
      ],
      "stateMutability": "view",
      "type": "function"
    },
    {
      "inputs": [],
      "name": "totalSupply",
      "outputs": [
        {
          "internalType": "uint256",
          "name": "",
          "type": "uint256"
        }
      ],
      "stateMutability": "view",
      "type": "function"
    },
    {
      "inputs": [
        {
          "internalType": "address",
          "name": "from",
          "type": "address"
        },
        {
          "internalType": "address",
          "name": "to",
          "type": "address"
        },
        {
          "internalType": "uint256",
          "name": "tokenId",
          "type": "uint256"
        }
      ],
      "name": "transferFrom",
      "outputs": [],
      "stateMutability": "nonpayable",
      "type": "function"
    },
    {
      "inputs": [
        {
          "internalType": "address",
          "name": "newOwner",
          "type": "address"
        }
      ],
      "name": "transferOwnership",
      "outputs": [],
      "stateMutability": "nonpayable",
      "type": "function"
    },
    {
      "inputs": [],
      "name": "whitelistCount",
      "outputs": [
        {
          "internalType": "uint256",
          "name": "",
          "type": "uint256"
        }
      ],
      "stateMutability": "view",
      "type": "function"
    },
    {
      "inputs": [],
      "name": "whitelistMerkleRoot",
      "outputs": [
        {
          "internalType": "bytes32",
          "name": "",
          "type": "bytes32"
        }
      ],
      "stateMutability": "view",
      "type": "function"
    },
    {
      "stateMutability": "payable",
      "type": "receive"
    }
  ],
  "bytecode": "0x60e0604052600080556000600755600160115560405162003e5c38038062003e5c8339810160408190526200003491620005df565b81816040518060400160405280600a8152602001692bb7b9363227b326b2b760b11b81525060405180604001604052806003815260200162574f4d60e81b8152508660008111620000dc5760405162461bcd60e51b815260206004820152602760248201527f455243373231413a206d61782062617463682073697a65206d757374206265206044820152666e6f6e7a65726f60c81b60648201526084015b60405180910390fd5b8251620000f1906001906020860190620004c2565b50815162000107906002906020850190620004c2565b50608052506200011990503362000282565b8051825114620001875760405162461bcd60e51b815260206004820152603260248201527f5061796d656e7453706c69747465723a2070617965657320616e6420736861726044820152710cae640d8cadccee8d040dad2e6dac2e8c6d60731b6064820152608401620000d3565b6000825111620001da5760405162461bcd60e51b815260206004820152601a60248201527f5061796d656e7453706c69747465723a206e6f207061796565730000000000006044820152606401620000d3565b60005b82518110156200025e57620002498382815181106200020c57634e487b7160e01b600052603260045260246000fd5b60200260200101518383815181106200023557634e487b7160e01b600052603260045260246000fd5b6020026020010151620002d460201b60201c565b80620002558162000778565b915050620001dd565b5050600160105550506014805461ffff191690555061271060c05260a052620007c2565b600880546001600160a01b038381166001600160a01b0319831681179093556040519116919082907f8be0079c531659141344cd1fd0a4f28419497f9722a3daafe3b4186f6b6457e090600090a35050565b6001600160a01b038216620003415760405162461bcd60e51b815260206004820152602c60248201527f5061796d656e7453706c69747465723a206163636f756e74206973207468652060448201526b7a65726f206164647265737360a01b6064820152608401620000d3565b60008111620003935760405162461bcd60e51b815260206004820152601d60248201527f5061796d656e7453706c69747465723a207368617265732061726520300000006044820152606401620000d3565b6001600160a01b0382166000908152600b6020526040902054156200040f5760405162461bcd60e51b815260206004820152602b60248201527f5061796d656e7453706c69747465723a206163636f756e7420616c726561647960448201526a206861732073686172657360a81b6064820152608401620000d3565b600d8054600181019091557fd7b6990105719101dabeb77144f2a3385c8033acd3af97e9423a695e81ad1eb50180546001600160a01b0319166001600160a01b0384169081179091556000908152600b602052604090208190556009546200047990829062000720565b600955604080516001600160a01b0384168152602081018390527f40c340f65e17194d14ddddb073d3c9f888e3cb52b5aae0c6c7706b4fbc905fac910160405180910390a15050565b828054620004d0906200073b565b90600052602060002090601f016020900481019282620004f457600085556200053f565b82601f106200050f57805160ff19168380011785556200053f565b828001600101855582156200053f579182015b828111156200053f57825182559160200191906001019062000522565b506200054d92915062000551565b5090565b5b808211156200054d576000815560010162000552565b600082601f83011262000579578081fd5b81516020620005926200058c83620006fa565b620006c7565b80838252828201915082860187848660051b8901011115620005b2578586fd5b855b85811015620005d257815184529284019290840190600101620005b4565b5090979650505050505050565b600080600060608486031215620005f4578283fd5b8351602080860151919450906001600160401b038082111562000615578485fd5b818701915087601f83011262000629578485fd5b81516200063a6200058c82620006fa565b8082825285820191508585018b878560051b88010111156200065a578889fd5b8895505b83861015620006935780516001600160a01b03811681146200067e57898afd5b8352600195909501949186019186016200065e565b5060408a01519097509450505080831115620006ad578384fd5b5050620006bd8682870162000568565b9150509250925092565b604051601f8201601f191681016001600160401b0381118282101715620006f257620006f2620007ac565b604052919050565b60006001600160401b03821115620007165762000716620007ac565b5060051b60200190565b6000821982111562000736576200073662000796565b500190565b600181811c908216806200075057607f821691505b602082108114156200077257634e487b7160e01b600052602260045260246000fd5b50919050565b60006000198214156200078f576200078f62000796565b5060010190565b634e487b7160e01b600052601160045260246000fd5b634e487b7160e01b600052604160045260246000fd5b60805160a05160c0516136406200081c600039600081816104b6015281816112db01526118c90152600081816103a8015281816113ac015261187e0152600081816124b8015281816124e20152612a0d01526136406000f3fe6080604052600436106102975760003560e01c80638b83209b1161015a578063c87b56dd116100c1578063e2e06fa31161007a578063e2e06fa3146108b4578063e33b7de3146108d4578063e985e9c5146108e9578063f2624b5d14610932578063f2fde38b14610948578063fdd4b0f01461096857600080fd5b8063c87b56dd146107d0578063c884ef83146107f0578063ce7c2ac21461081d578063cfc86f7b14610853578063d7224ba014610868578063d79779b21461087e57600080fd5b8063a22cb46511610113578063a22cb4651461072d578063a6d612f91461074d578063aa98e0c614610760578063b88d4fde14610776578063b98451cf14610796578063bd32fb66146107b057600080fd5b80638b83209b1461063b5780638d859f3e1461065b5780638da5cb5b146106765780639231ab2a1461069457806395d89b41146106e25780639852595c146106f757600080fd5b806332cb6b0c116101fe57806355f804b3116101b757806355f804b3146105935780635a5e5d58146105b35780636352211e146105c65780636a78f227146105e657806370a0823114610606578063715018a61461062657600080fd5b806332cb6b0c146104a45780633a98ef39146104d8578063406072a9146104ed57806342842e0e1461053357806348b75044146105535780634f6ccce71461057357600080fd5b8063191655871161025057806319165587146103ed5780631e84c4131461040d57806323b872dd1461042c5780632d20fb601461044c5780632f745c591461046c57806332a61f5f1461048c57600080fd5b806301ffc9a7146102e557806306fdde031461031a578063081812fc1461033c578063095ea7b3146103745780630aaef2851461039657806318160ddd146103d857600080fd5b366102e0577f6ef95f06320e7a25a04a175ca677b7052bdd97131872c2192525a629f51be77033604080516001600160a01b0390921682523460208301520160405180910390a1005b600080fd5b3480156102f157600080fd5b5061030561030036600461310b565b610985565b60405190151581526020015b60405180910390f35b34801561032657600080fd5b5061032f6109f2565b604051610311919061328e565b34801561034857600080fd5b5061035c6103573660046130f3565b610a84565b6040516001600160a01b039091168152602001610311565b34801561038057600080fd5b5061039461038f36600461301a565b610b14565b005b3480156103a257600080fd5b506103ca7f000000000000000000000000000000000000000000000000000000000000000081565b604051908152602001610311565b3480156103e457600080fd5b506000546103ca565b3480156103f957600080fd5b50610394610408366004612e80565b610c2c565b34801561041957600080fd5b5060145461030590610100900460ff1681565b34801561043857600080fd5b50610394610447366004612ed4565b610d5a565b34801561045857600080fd5b506103946104673660046130f3565b610d65565b34801561047857600080fd5b506103ca61048736600461301a565b610dc8565b34801561049857600080fd5b5060145460ff16610305565b3480156104b057600080fd5b506103ca7f000000000000000000000000000000000000000000000000000000000000000081565b3480156104e457600080fd5b506009546103ca565b3480156104f957600080fd5b506103ca610508366004613143565b6001600160a01b039182166000908152600f6020908152604080832093909416825291909152205490565b34801561053f57600080fd5b5061039461054e366004612ed4565b610f36565b34801561055f57600080fd5b5061039461056e366004613143565b610f51565b34801561057f57600080fd5b506103ca61058e3660046130f3565b611139565b34801561059f57600080fd5b506103946105ae366004613155565b61119b565b6103946105c13660046130f3565b6111d1565b3480156105d257600080fd5b5061035c6105e13660046130f3565b611407565b3480156105f257600080fd5b506103946106013660046130bb565b611419565b34801561061257600080fd5b506103ca610621366004612e80565b611456565b34801561063257600080fd5b506103946114e7565b34801561064757600080fd5b5061035c6106563660046130f3565b61151d565b34801561066757600080fd5b506103ca66f523226980800081565b34801561068257600080fd5b506008546001600160a01b031661035c565b3480156106a057600080fd5b506106b46106af3660046130f3565b61155b565b6040805182516001600160a01b0316815260209283015167ffffffffffffffff169281019290925201610311565b3480156106ee57600080fd5b5061032f611578565b34801561070357600080fd5b506103ca610712366004612e80565b6001600160a01b03166000908152600c602052604090205490565b34801561073957600080fd5b50610394610748366004612fed565b611587565b61039461075b366004613045565b61164c565b34801561076c57600080fd5b506103ca60125481565b34801561078257600080fd5b50610394610791366004612f14565b611991565b3480156107a257600080fd5b506014546103059060ff1681565b3480156107bc57600080fd5b506103946107cb3660046130f3565b6119ca565b3480156107dc57600080fd5b5061032f6107eb3660046130f3565b6119f9565b3480156107fc57600080fd5b506103ca61080b366004612e80565b60156020526000908152604090205481565b34801561082957600080fd5b506103ca610838366004612e80565b6001600160a01b03166000908152600b602052604090205490565b34801561085f57600080fd5b5061032f611ac6565b34801561087457600080fd5b506103ca60075481565b34801561088a57600080fd5b506103ca610899366004612e80565b6001600160a01b03166000908152600e602052604090205490565b3480156108c057600080fd5b506103946108cf3660046130bb565b611b54565b3480156108e057600080fd5b50600a546103ca565b3480156108f557600080fd5b50610305610904366004612e9c565b6001600160a01b03918216600090815260066020908152604080832093909416825291909152205460ff1690565b34801561093e57600080fd5b506103ca60115481565b34801561095457600080fd5b50610394610963366004612e80565b611b98565b34801561097457600080fd5b50601454610100900460ff16610305565b60006001600160e01b031982166380ac58cd60e01b14806109b657506001600160e01b03198216635b5e139f60e01b145b806109d157506001600160e01b0319821663780e9d6360e01b145b806109ec57506301ffc9a760e01b6001600160e01b03198316145b92915050565b606060018054610a0190613525565b80601f0160208091040260200160405190810160405280929190818152602001828054610a2d90613525565b8015610a7a5780601f10610a4f57610100808354040283529160200191610a7a565b820191906000526020600020905b815481529060010190602001808311610a5d57829003601f168201915b5050505050905090565b6000610a91826000541190565b610af85760405162461bcd60e51b815260206004820152602d60248201527f455243373231413a20617070726f76656420717565727920666f72206e6f6e6560448201526c3c34b9ba32b73a103a37b5b2b760991b60648201526084015b60405180910390fd5b506000908152600560205260409020546001600160a01b031690565b6000610b1f82611407565b9050806001600160a01b0316836001600160a01b03161415610b8e5760405162461bcd60e51b815260206004820152602260248201527f455243373231413a20617070726f76616c20746f2063757272656e74206f776e60448201526132b960f11b6064820152608401610aef565b336001600160a01b0382161480610baa5750610baa8133610904565b610c1c5760405162461bcd60e51b815260206004820152603960248201527f455243373231413a20617070726f76652063616c6c6572206973206e6f74206f60448201527f776e6572206e6f7220617070726f76656420666f7220616c6c000000000000006064820152608401610aef565b610c27838383611c33565b505050565b6001600160a01b0381166000908152600b6020526040902054610c615760405162461bcd60e51b8152600401610aef906132e6565b6000610c6c600a5490565b610c769047613458565b90506000610ca38383610c9e866001600160a01b03166000908152600c602052604090205490565b611c8f565b905080610cc25760405162461bcd60e51b8152600401610aef9061332c565b6001600160a01b0383166000908152600c602052604081208054839290610cea908490613458565b9250508190555080600a6000828254610d039190613458565b90915550610d1390508382611cd5565b604080516001600160a01b0385168152602081018390527fdf20fd1e76bc69d672e4814fafb2c449bba3a5369d8359adf9e05e6fde87b056910160405180910390a1505050565b610c27838383611dee565b6008546001600160a01b03163314610d8f5760405162461bcd60e51b8152600401610aef90613377565b60026010541415610db25760405162461bcd60e51b8152600401610aef906133ff565b6002601055610dc081612176565b506001601055565b6000610dd383611456565b8210610e2c5760405162461bcd60e51b815260206004820152602260248201527f455243373231413a206f776e657220696e646578206f7574206f6620626f756e604482015261647360f01b6064820152608401610aef565b600080549080805b83811015610ed6576000818152600360209081526040918290208251808401909352546001600160a01b038116808452600160a01b90910467ffffffffffffffff169183019190915215610e8757805192505b876001600160a01b0316836001600160a01b03161415610ec35786841415610eb5575093506109ec92505050565b83610ebf81613560565b9450505b5080610ece81613560565b915050610e34565b5060405162461bcd60e51b815260206004820152602e60248201527f455243373231413a20756e61626c6520746f2067657420746f6b656e206f662060448201526d0deeedccae440c4f240d2dcc8caf60931b6064820152608401610aef565b610c2783838360405180602001604052806000815250611991565b6001600160a01b0381166000908152600b6020526040902054610f865760405162461bcd60e51b8152600401610aef906132e6565b6001600160a01b0382166000908152600e60205260408120546040516370a0823160e01b81523060048201526001600160a01b038516906370a082319060240160206040518083038186803b158015610fde57600080fd5b505afa158015610ff2573d6000803e3d6000fd5b505050506040513d601f19601f8201168201806040525081019061101691906131c2565b6110209190613458565b905060006110598383610c9e87876001600160a01b039182166000908152600f6020908152604080832093909416825291909152205490565b9050806110785760405162461bcd60e51b8152600401610aef9061332c565b6001600160a01b038085166000908152600f60209081526040808320938716835292905290812080548392906110af908490613458565b90915550506001600160a01b0384166000908152600e6020526040812080548392906110dc908490613458565b909155506110ed9050848483612328565b604080516001600160a01b038581168252602082018490528616917f3be5b7a71e84ed12875d241991c70855ac5817d847039e17a9d895c1ceb0f18a910160405180910390a250505050565b6000805482106111975760405162461bcd60e51b815260206004820152602360248201527f455243373231413a20676c6f62616c20696e646578206f7574206f6620626f756044820152626e647360e81b6064820152608401610aef565b5090565b6008546001600160a01b031633146111c55760405162461bcd60e51b8152600401610aef90613377565b610c2760138383612df0565b3233146112205760405162461bcd60e51b815260206004820152601e60248201527f5468652063616c6c657220697320616e6f7468657220636f6e747261637400006044820152606401610aef565b600260105414156112435760405162461bcd60e51b8152600401610aef906133ff565b6002601055601454610100900460ff166112965760405162461bcd60e51b815260206004820152601460248201527314d85b19481a185cc81b9bdd081cdd185c9d195960621b6044820152606401610aef565b806112d95760405162461bcd60e51b815260206004820152601360248201527226bab9ba103830b9b99034b710373ab6b132b960691b6044820152606401610aef565b7f00000000000000000000000000000000000000000000000000000000000000008161130460005490565b61130e9190613458565b11156113505760405162461bcd60e51b815260206004820152601160248201527013585e081d1bdad95b9cc81b5a5b9d1959607a1b6044820152606401610aef565b346113628266f5232269808000613484565b146113aa5760405162461bcd60e51b8152602060048201526018602482015277125b98dbdc9c9958dd08115512081d985b1d59481cd95b9d60421b6044820152606401610aef565b7f0000000000000000000000000000000000000000000000000000000000000000816113d53361237a565b6113df9190613458565b11156113fd5760405162461bcd60e51b8152600401610aef906132a1565b610dc03382612418565b600061141282612436565b5192915050565b6008546001600160a01b031633146114435760405162461bcd60e51b8152600401610aef90613377565b6014805460ff1916911515919091179055565b60006001600160a01b0382166114c25760405162461bcd60e51b815260206004820152602b60248201527f455243373231413a2062616c616e636520717565727920666f7220746865207a60448201526a65726f206164647265737360a81b6064820152608401610aef565b506001600160a01b03166000908152600460205260409020546001600160801b031690565b6008546001600160a01b031633146115115760405162461bcd60e51b8152600401610aef90613377565b61151b60006125e0565b565b6000600d828154811061154057634e487b7160e01b600052603260045260246000fd5b6000918252602090912001546001600160a01b031692915050565b60408051808201909152600080825260208201526109ec82612436565b606060028054610a0190613525565b6001600160a01b0382163314156115e05760405162461bcd60e51b815260206004820152601a60248201527f455243373231413a20617070726f766520746f2063616c6c65720000000000006044820152606401610aef565b3360008181526006602090815260408083206001600160a01b03871680855290835292819020805460ff191686151590811790915590519081529192917f17307eab39ab6107e8899845ad3d59bd9653f200f220920489ca2b5937696c31910160405180910390a35050565b82826012546116c3838380806020026020016040519081016040528093929190818152602001838360200280828437600092019190915250506040516bffffffffffffffffffffffff193360601b166020820152859250603401905060405160208183030381529060405280519060200120612632565b61170f5760405162461bcd60e51b815260206004820152601e60248201527f4164647265737320646f6573206e6f7420657869737420696e206c69737400006044820152606401610aef565b32331461175e5760405162461bcd60e51b815260206004820152601e60248201527f5468652063616c6c657220697320616e6f7468657220636f6e747261637400006044820152606401610aef565b600260105414156117815760405162461bcd60e51b8152600401610aef906133ff565b600260105560145460ff166117cf5760405162461bcd60e51b815260206004820152601460248201527314d85b19481a185cc81b9bdd081cdd185c9d195960621b6044820152606401610aef565b836118125760405162461bcd60e51b815260206004820152601360248201527226bab9ba103830b9b99034b710373ab6b132b960691b6044820152606401610aef565b346118248566f5232269808000613484565b1461186c5760405162461bcd60e51b8152602060048201526018602482015277125b98dbdc9c9958dd08115512081d985b1d59481cd95b9d60421b6044820152606401610aef565b336000908152601560205260409020547f0000000000000000000000000000000000000000000000000000000000000000906118a9908690613458565b11156118c75760405162461bcd60e51b8152600401610aef906132a1565b7f0000000000000000000000000000000000000000000000000000000000000000846118f260005490565b6118fc9190613458565b111561193e5760405162461bcd60e51b815260206004820152601160248201527013585e081d1bdad95b9cc81b5a5b9d1959607a1b6044820152606401610aef565b83601160008282546119509190613458565b90915550503360009081526015602052604081208054869290611974908490613458565b9091555061198490503385612418565b5050600160105550505050565b61199c848484611dee565b6119a884848484612648565b6119c45760405162461bcd60e51b8152600401610aef906133ac565b50505050565b6008546001600160a01b031633146119f45760405162461bcd60e51b8152600401610aef90613377565b601255565b6060611a06826000541190565b611a6a5760405162461bcd60e51b815260206004820152602f60248201527f4552433732314d657461646174613a2055524920717565727920666f72206e6f60448201526e3732bc34b9ba32b73a103a37b5b2b760891b6064820152608401610aef565b6000611a74612755565b90506000815111611a945760405180602001604052806000815250611abf565b80611a9e84612764565b604051602001611aaf929190613222565b6040516020818303038152906040525b9392505050565b60138054611ad390613525565b80601f0160208091040260200160405190810160405280929190818152602001828054611aff90613525565b8015611b4c5780601f10611b2157610100808354040283529160200191611b4c565b820191906000526020600020905b815481529060010190602001808311611b2f57829003601f168201915b505050505081565b6008546001600160a01b03163314611b7e5760405162461bcd60e51b8152600401610aef90613377565b601480549115156101000261ff0019909216919091179055565b6008546001600160a01b03163314611bc25760405162461bcd60e51b8152600401610aef90613377565b6001600160a01b038116611c275760405162461bcd60e51b815260206004820152602660248201527f4f776e61626c653a206e6577206f776e657220697320746865207a65726f206160448201526564647265737360d01b6064820152608401610aef565b611c30816125e0565b50565b60008281526005602052604080822080546001600160a01b0319166001600160a01b0387811691821790925591518593918516917f8c5be1e5ebec7d5bd14f71427d1e84f3dd0314c0f7b2291e5b200ac8c7c3b92591a4505050565b6009546001600160a01b0384166000908152600b602052604081205490918391611cb99086613484565b611cc39190613470565b611ccd91906134cb565b949350505050565b80471015611d255760405162461bcd60e51b815260206004820152601d60248201527f416464726573733a20696e73756666696369656e742062616c616e63650000006044820152606401610aef565b6000826001600160a01b03168260405160006040518083038185875af1925050503d8060008114611d72576040519150601f19603f3d011682016040523d82523d6000602084013e611d77565b606091505b5050905080610c275760405162461bcd60e51b815260206004820152603a60248201527f416464726573733a20756e61626c6520746f2073656e642076616c75652c207260448201527f6563697069656e74206d617920686176652072657665727465640000000000006064820152608401610aef565b6000611df982612436565b80519091506000906001600160a01b0316336001600160a01b03161480611e30575033611e2584610a84565b6001600160a01b0316145b80611e4257508151611e429033610904565b905080611eac5760405162461bcd60e51b815260206004820152603260248201527f455243373231413a207472616e736665722063616c6c6572206973206e6f74206044820152711bdddb995c881b9bdc88185c1c1c9bdd995960721b6064820152608401610aef565b846001600160a01b031682600001516001600160a01b031614611f205760405162461bcd60e51b815260206004820152602660248201527f455243373231413a207472616e736665722066726f6d20696e636f72726563746044820152651037bbb732b960d11b6064820152608401610aef565b6001600160a01b038416611f845760405162461bcd60e51b815260206004820152602560248201527f455243373231413a207472616e7366657220746f20746865207a65726f206164604482015264647265737360d81b6064820152608401610aef565b611f946000848460000151611c33565b6001600160a01b0385166000908152600460205260408120805460019290611fc69084906001600160801b03166134a3565b82546101009290920a6001600160801b038181021990931691831602179091556001600160a01b0386166000908152600460205260408120805460019450909261201291859116613436565b82546001600160801b039182166101009390930a9283029190920219909116179055506040805180820182526001600160a01b03808716825267ffffffffffffffff428116602080850191825260008981526003909152948520935184549151909216600160a01b026001600160e01b0319909116919092161717905561209a846001613458565b6000818152600360205260409020549091506001600160a01b031661212c576120c4816000541190565b1561212c5760408051808201825284516001600160a01b03908116825260208087015167ffffffffffffffff9081168285019081526000878152600390935294909120925183549451909116600160a01b026001600160e01b03199094169116179190911790555b83856001600160a01b0316876001600160a01b03167fddf252ad1be2c89b69c2b068fc378daa952ba7f163c4a11628f55a4df523b3ef60405160405180910390a45b505050505050565b600754816121c65760405162461bcd60e51b815260206004820152601860248201527f7175616e74697479206d757374206265206e6f6e7a65726f00000000000000006044820152606401610aef565b600060016121d48484613458565b6121de91906134cb565b905060016000546121ef91906134cb565b81111561220857600160005461220591906134cb565b90505b612213816000541190565b61226e5760405162461bcd60e51b815260206004820152602660248201527f6e6f7420656e6f756768206d696e7465642079657420666f722074686973206360448201526506c65616e75760d41b6064820152608401610aef565b815b818111612314576000818152600360205260409020546001600160a01b031661230257600061229e82612436565b60408051808201825282516001600160a01b03908116825260209384015167ffffffffffffffff9081168584019081526000888152600390965293909420915182549351909416600160a01b026001600160e01b0319909316931692909217179055505b8061230c81613560565b915050612270565b50612320816001613458565b600755505050565b604080516001600160a01b038416602482015260448082018490528251808303909101815260649091019091526020810180516001600160e01b031663a9059cbb60e01b179052610c2790849061287e565b60006001600160a01b0382166123ec5760405162461bcd60e51b815260206004820152603160248201527f455243373231413a206e756d626572206d696e74656420717565727920666f7260448201527020746865207a65726f206164647265737360781b6064820152608401610aef565b506001600160a01b0316600090815260046020526040902054600160801b90046001600160801b031690565b612432828260405180602001604052806000815250612950565b5050565b6040805180820190915260008082526020820152612455826000541190565b6124b45760405162461bcd60e51b815260206004820152602a60248201527f455243373231413a206f776e657220717565727920666f72206e6f6e657869736044820152693a32b73a103a37b5b2b760b11b6064820152608401610aef565b60007f00000000000000000000000000000000000000000000000000000000000000008310612515576125077f0000000000000000000000000000000000000000000000000000000000000000846134cb565b612512906001613458565b90505b825b81811061257f576000818152600360209081526040918290208251808401909352546001600160a01b038116808452600160a01b90910467ffffffffffffffff16918301919091521561256c57949350505050565b50806125778161350e565b915050612517565b5060405162461bcd60e51b815260206004820152602f60248201527f455243373231413a20756e61626c6520746f2064657465726d696e652074686560448201526e1037bbb732b91037b3103a37b5b2b760891b6064820152608401610aef565b600880546001600160a01b038381166001600160a01b0319831681179093556040519116919082907f8be0079c531659141344cd1fd0a4f28419497f9722a3daafe3b4186f6b6457e090600090a35050565b60008261263f8584612c2b565b14949350505050565b60006001600160a01b0384163b1561274a57604051630a85bd0160e11b81526001600160a01b0385169063150b7a029061268c903390899088908890600401613251565b602060405180830381600087803b1580156126a657600080fd5b505af19250505080156126d6575060408051601f3d908101601f191682019092526126d391810190613127565b60015b612730573d808015612704576040519150601f19603f3d011682016040523d82523d6000602084013e612709565b606091505b5080516127285760405162461bcd60e51b8152600401610aef906133ac565b805181602001fd5b6001600160e01b031916630a85bd0160e11b149050611ccd565b506001949350505050565b606060138054610a0190613525565b6060816127885750506040805180820190915260018152600360fc1b602082015290565b8160005b81156127b2578061279c81613560565b91506127ab9050600a83613470565b915061278c565b60008167ffffffffffffffff8111156127db57634e487b7160e01b600052604160045260246000fd5b6040519080825280601f01601f191660200182016040528015612805576020820181803683370190505b5090505b8415611ccd5761281a6001836134cb565b9150612827600a8661357b565b612832906030613458565b60f81b81838151811061285557634e487b7160e01b600052603260045260246000fd5b60200101906001600160f81b031916908160001a905350612877600a86613470565b9450612809565b60006128d3826040518060400160405280602081526020017f5361666545524332303a206c6f772d6c6576656c2063616c6c206661696c6564815250856001600160a01b0316612ce59092919063ffffffff16565b805190915015610c2757808060200190518101906128f191906130d7565b610c275760405162461bcd60e51b815260206004820152602a60248201527f5361666545524332303a204552433230206f7065726174696f6e20646964206e6044820152691bdd081cdd58d8d9595960b21b6064820152608401610aef565b6000546001600160a01b0384166129b35760405162461bcd60e51b815260206004820152602160248201527f455243373231413a206d696e7420746f20746865207a65726f206164647265736044820152607360f81b6064820152608401610aef565b6129be816000541190565b15612a0b5760405162461bcd60e51b815260206004820152601d60248201527f455243373231413a20746f6b656e20616c7265616479206d696e7465640000006044820152606401610aef565b7f0000000000000000000000000000000000000000000000000000000000000000831115612a865760405162461bcd60e51b815260206004820152602260248201527f455243373231413a207175616e7469747920746f206d696e7420746f6f2068696044820152610ced60f31b6064820152608401610aef565b6001600160a01b0384166000908152600460209081526040918290208251808401845290546001600160801b038082168352600160801b9091041691810191909152815180830190925280519091908190612ae2908790613436565b6001600160801b03168152602001858360200151612b009190613436565b6001600160801b039081169091526001600160a01b0380881660008181526004602090815260408083208751978301518716600160801b0297909616969096179094558451808601865291825267ffffffffffffffff4281168386019081528883526003909552948120915182549451909516600160a01b026001600160e01b031990941694909216939093179190911790915582905b85811015612c205760405182906001600160a01b038916906000907fddf252ad1be2c89b69c2b068fc378daa952ba7f163c4a11628f55a4df523b3ef908290a4612be46000888488612648565b612c005760405162461bcd60e51b8152600401610aef906133ac565b81612c0a81613560565b9250508080612c1890613560565b915050612b97565b50600081905561216e565b600081815b8451811015612cdd576000858281518110612c5b57634e487b7160e01b600052603260045260246000fd5b60200260200101519050808311612c9d576040805160208101859052908101829052606001604051602081830303815290604052805190602001209250612cca565b60408051602081018390529081018490526060016040516020818303038152906040528051906020012092505b5080612cd581613560565b915050612c30565b509392505050565b6060611ccd848460008585843b612d3e5760405162461bcd60e51b815260206004820152601d60248201527f416464726573733a2063616c6c20746f206e6f6e2d636f6e74726163740000006044820152606401610aef565b600080866001600160a01b03168587604051612d5a9190613206565b60006040518083038185875af1925050503d8060008114612d97576040519150601f19603f3d011682016040523d82523d6000602084013e612d9c565b606091505b5091509150612dac828286612db7565b979650505050505050565b60608315612dc6575081611abf565b825115612dd65782518084602001fd5b8160405162461bcd60e51b8152600401610aef919061328e565b828054612dfc90613525565b90600052602060002090601f016020900481019282612e1e5760008555612e64565b82601f10612e375782800160ff19823516178555612e64565b82800160010185558215612e64579182015b82811115612e64578235825591602001919060010190612e49565b506111979291505b808211156111975760008155600101612e6c565b600060208284031215612e91578081fd5b8135611abf816135d1565b60008060408385031215612eae578081fd5b8235612eb9816135d1565b91506020830135612ec9816135d1565b809150509250929050565b600080600060608486031215612ee8578081fd5b8335612ef3816135d1565b92506020840135612f03816135d1565b929592945050506040919091013590565b60008060008060808587031215612f29578081fd5b8435612f34816135d1565b93506020850135612f44816135d1565b925060408501359150606085013567ffffffffffffffff80821115612f67578283fd5b818701915087601f830112612f7a578283fd5b813581811115612f8c57612f8c6135bb565b604051601f8201601f19908116603f01168101908382118183101715612fb457612fb46135bb565b816040528281528a6020848701011115612fcc578586fd5b82602086016020830137918201602001949094529598949750929550505050565b60008060408385031215612fff578182fd5b823561300a816135d1565b91506020830135612ec9816135e6565b6000806040838503121561302c578182fd5b8235613037816135d1565b946020939093013593505050565b600080600060408486031215613059578283fd5b833567ffffffffffffffff80821115613070578485fd5b818601915086601f830112613083578485fd5b813581811115613091578586fd5b8760208260051b85010111156130a5578586fd5b6020928301989097509590910135949350505050565b6000602082840312156130cc578081fd5b8135611abf816135e6565b6000602082840312156130e8578081fd5b8151611abf816135e6565b600060208284031215613104578081fd5b5035919050565b60006020828403121561311c578081fd5b8135611abf816135f4565b600060208284031215613138578081fd5b8151611abf816135f4565b60008060408385031215612eae578182fd5b60008060208385031215613167578182fd5b823567ffffffffffffffff8082111561317e578384fd5b818501915085601f830112613191578384fd5b81358181111561319f578485fd5b8660208285010111156131b0578485fd5b60209290920196919550909350505050565b6000602082840312156131d3578081fd5b5051919050565b600081518084526131f28160208601602086016134e2565b601f01601f19169290920160200192915050565b600082516132188184602087016134e2565b9190910192915050565b600083516132348184602088016134e2565b8351908301906132488183602088016134e2565b01949350505050565b6001600160a01b0385811682528416602082015260408101839052608060608201819052600090613284908301846131da565b9695505050505050565b602081526000611abf60208301846131da565b60208082526025908201527f416c7265616479206d696e746564206d6178206164647265737320616c6c6f6360408201526430ba34b7b760d91b606082015260800190565b60208082526026908201527f5061796d656e7453706c69747465723a206163636f756e7420686173206e6f2060408201526573686172657360d01b606082015260800190565b6020808252602b908201527f5061796d656e7453706c69747465723a206163636f756e74206973206e6f742060408201526a191d59481c185e5b595b9d60aa1b606082015260800190565b6020808252818101527f4f776e61626c653a2063616c6c6572206973206e6f7420746865206f776e6572604082015260600190565b60208082526033908201527f455243373231413a207472616e7366657220746f206e6f6e204552433732315260408201527232b1b2b4bb32b91034b6b83632b6b2b73a32b960691b606082015260800190565b6020808252601f908201527f5265656e7472616e637947756172643a207265656e7472616e742063616c6c00604082015260600190565b60006001600160801b038083168185168083038211156132485761324861358f565b6000821982111561346b5761346b61358f565b500190565b60008261347f5761347f6135a5565b500490565b600081600019048311821515161561349e5761349e61358f565b500290565b60006001600160801b03838116908316818110156134c3576134c361358f565b039392505050565b6000828210156134dd576134dd61358f565b500390565b60005b838110156134fd5781810151838201526020016134e5565b838111156119c45750506000910152565b60008161351d5761351d61358f565b506000190190565b600181811c9082168061353957607f821691505b6020821081141561355a57634e487b7160e01b600052602260045260246000fd5b50919050565b60006000198214156135745761357461358f565b5060010190565b60008261358a5761358a6135a5565b500690565b634e487b7160e01b600052601160045260246000fd5b634e487b7160e01b600052601260045260246000fd5b634e487b7160e01b600052604160045260246000fd5b6001600160a01b0381168114611c3057600080fd5b8015158114611c3057600080fd5b6001600160e01b031981168114611c3057600080fdfea264697066735822122006103a770db501997793d0adf0f774127b86fea334860ffb595058fd890384e864736f6c63430008040033",
  "linkReferences": {},
  "deployedLinkReferences": {}
}